:020000040800F2
:1000000037110020130101803715024013058501C7
:1000100083250500B743000093835323B3E57500A0
:100020002320B50037150240130545008325050040
:10003000B713000093830380B3E575002320B50058
:10004000371501401305054083250500B70301F06E
:100050009383F3FFB3F57500B703B00893830300F0
:10006000B3E575002320B5003745014013058580B1
:100070008325050093031034B3E575002320B500F4
:10008000374501401305C58083250500B7230000CF
:100090009383C300B3E575002320B50037250140E5
:1000A00013058540832505009303E0FFB3F5750034
:1000B0002320B5003725014013054543832505005E
:1000C00093037000B3E575002320B5003725014088
:1000D0001305054183250500B703E0009383030062
:1000E000B3E575002320B500372501401305854091
:1000F00083250500B7030E0093831300B3E5750055
:100100002320B500372501401305854083250500D0
:1001100093038000B3E575002320B5003725014027
:10012000130585408325050093F58500E39805FEBA
:1001300037250140130585408325050093034000C2
:10014000B3E575002320B500372501401305854030
:100150008325050093F54500E39805FE1305C028A7
:100160000304050063080400EF00400913051500AF
:100170006FF01FFF372501401305854083250500DB
:10018000B70340009383030093E515002320B500D7
:1001900037250140130505408325050093F525000B
:1001A000E38805FE372501401305C5448325050076
:1001B00037050020130505012320B500EF000016C8
:1001C000EF00803713040002EF0040031304D00057
:1001D000EF00C0021304A000EF004002130400026D
:1001E000EF00C0011304D000EF0040011304A00091
:1001F000EF00C000EF00C0066FF0DFF7130101FF52
:1002000023201100232271002324A1002326B10002
:1002100037450140130505808325050093F5050842
:10022000E38E05FC93030400374501401305458028
:10023000230075003745014013050580832505001F
:1002400093F50504E38805FE8325C100032581009D
:100250008323410083200100130101016780000016
:10026000130181FF232011002322610037831E0028
:10027000130303481303F3FFE31E03FE03234100AC
:1002800083200100130181006780000053414A452B
:1002900045562053414E4B4152414E204348333244
:1002A0005630303320554152540D0A001301C1FF1E
:1002B000232011009386030093F6060F93D6460081
:1002C00013A7A600630A070093E60603138406003B
:1002D000EFF0DFF26F0000019386760313840600CF
:1002E000EFF0DFF19386030093F6F60013A7A60064
:1002F000630A070093E6060313840600EFF01FF07D
:100300006F0000019386760313840600EFF01FEF61
:10031000832001001301410067800000130101FEEA
:10032000232E1100232CF100232AB1002328810061
:100330002326710023245100232241002320610041
:100340001302000093020000930300001304000056
:100350009307000003220500B7D39A3B938303A0C1
:1003600033047240B3327200639802001302040037
:10037000938717006FF0DFFE938707033705002090
:10038000130545022300F50093070000B7E3F505C8
:100390009383031033047240B332720063980200F7
:1003A00013020400938717006FF0DFFE93870703A3
:1003B000130515002300F50093070000B79398007C
:1003C0009383036833047240B3327200639802006F
:1003D00013020400938717006FF0DFFE9387070373
:1003E000130515002300F50093070000B7430F0025
:1003F0009383032433047240B33272006398020083
:1004000013020400938717006FF0DFFE9387070342
:10041000130515002300F50093070000B7830100C2
:100420009383036A33047240B3327200639802000C
:1004300013020400938717006FF0DFFE9387070312
:10044000130515002300F50093070000B7230000F3
:100450009383037133047240B332720063980200D5
:1004600013020400938717006FF0DFFE93870703E2
:10047000130515002300F500930700009303803E49
:1004800033047240B3327200639802001302040016
:10049000938717006FF0DFFE93870703130515009E
:1004A0002300F500930700009303400633047240D5
:1004B000B33272006398020013020400938717009E
:1004C0006FF0DFFE93870703130515002300F50087
:1004D000930700009303A00033047240B33272000C
:1004E0006398020013020400938717006FF0DFFE89
:1004F00093870703130515002300F50093070000F9
:100500009307020093870703130515002300F500E6
:100510000323010003224100832281008323C100C1
:100520000324010183254101832781018320C10127
:1005300013010102678000001301C1FE232811008E
:100540002326B1002324A10023228100232061005F
:10055000B70500209385050223A00500370500207C
:1005600013054502130300009307A00003040500D0
:100570001302000363004404B705002093850502BD
:100580009302100023A05500130515001303130058
:10059000EFF0DFC6E31CF3FC03230100032441005A
:1005A000032581008325C10083200101130141013E
:1005B00067800000B70500209385050283A205002F
:1005C00063980200130400021302900063044300C6
:0C05D0006FF09FFB130400036FF01FFB93
:00000001FF
